{
  "_format": "hh-sol-artifact-1",
  "contractName": "Voting",
  "sourceName": "contracts/Voting.sol",
  "abi": [
    {
      "inputs": [],
      "stateMutability": "nonpayable",
      "type": "constructor"
    },
    {
      "anonymous": false,
      "inputs": [
        {
          "indexed": true,
          "internalType": "uint256",
          "name": "id",
          "type": "uint256"
        },
        {
          "indexed": false,
          "internalType": "string",
          "name": "name",
          "type": "string"
        }
      ],
      "name": "CandidateAdded",
      "type": "event"
    },
    {
      "anonymous": false,
      "inputs": [
        {
          "indexed": true,
          "internalType": "address",
          "name": "voter",
          "type": "address"
        },
        {
          "indexed": true,
          "internalType": "uint256",
          "name": "candidateId",
          "type": "uint256"
        }
      ],
      "name": "VoteCast",
      "type": "event"
    },
    {
      "anonymous": false,
      "inputs": [],
      "name": "VotingEnded",
      "type": "event"
    },
    {
      "inputs": [
        {
          "internalType": "string",
          "name": "_name",
          "type": "string"
        }
      ],
      "name": "addCandidate",
      "outputs": [],
      "stateMutability": "nonpayable",
      "type": "function"
    },
    {
      "inputs": [
        {
          "internalType": "uint256",
          "name": "",
          "type": "uint256"
        }
      ],
      "name": "candidates",
      "outputs": [
        {
          "internalType": "uint256",
          "name": "id",
          "type": "uint256"
        },
        {
          "internalType": "string",
          "name": "name",
          "type": "string"
        },
        {
          "internalType": "uint256",
          "name": "voteCount",
          "type": "uint256"
        }
      ],
      "stateMutability": "view",
      "type": "function"
    },
    {
      "inputs": [],
      "name": "candidatesCount",
      "outputs": [
        {
          "internalType": "uint256",
          "name": "",
          "type": "uint256"
        }
      ],
      "stateMutability": "view",
      "type": "function"
    },
    {
      "inputs": [],
      "name": "endVoting",
      "outputs": [],
      "stateMutability": "nonpayable",
      "type": "function"
    },
    {
      "inputs": [],
      "name": "getWinner",
      "outputs": [
        {
          "internalType": "string",
          "name": "winnerName",
          "type": "string"
        },
        {
          "internalType": "uint256",
          "name": "winnerVoteCount",
          "type": "uint256"
        }
      ],
      "stateMutability": "view",
      "type": "function"
    },
    {
      "inputs": [
        {
          "internalType": "address",
          "name": "",
          "type": "address"
        }
      ],
      "name": "hasVoted",
      "outputs": [
        {
          "internalType": "bool",
          "name": "",
          "type": "bool"
        }
      ],
      "stateMutability": "view",
      "type": "function"
    },
    {
      "inputs": [],
      "name": "owner",
      "outputs": [
        {
          "internalType": "address",
          "name": "",
          "type": "address"
        }
      ],
      "stateMutability": "view",
      "type": "function"
    },
    {
      "inputs": [
        {
          "internalType": "uint256",
          "name": "_candidateId",
          "type": "uint256"
        }
      ],
      "name": "vote",
      "outputs": [],
      "stateMutability": "nonpayable",
      "type": "function"
    },
    {
      "inputs": [],
      "name": "votingOpen",
      "outputs": [
        {
          "internalType": "bool",
          "name": "",
          "type": "bool"
        }
      ],
      "stateMutability": "view",
      "type": "function"
    }
  ],
  "bytecode": "0x608060405234801561001057600080fd5b5033600360006101000a81548173ffffffffffffffffffffffffffffffffffffffff021916908373ffffffffffffffffffffffffffffffffffffffff1602179055506001600360146101000a81548160ff0219169083151502179055506112328061007c6000396000f3fe608060405234801561001057600080fd5b50600436106100935760003560e01c8063462e91ec11610066578063462e91ec146101345780638da5cb5b146101505780638e7ea5b21461016e578063a95824b41461018d578063c3403ddf146101ab57610093565b80630121b93f1461009857806309eef43e146100b45780632d35a8a2146100e45780633477ee2e14610102575b600080fd5b6100b260048036038101906100ad9190610877565b6101b5565b005b6100ce60048036038101906100c99190610902565b61039e565b6040516100db919061094a565b60405180910390f35b6100ec6103be565b6040516100f99190610974565b60405180910390f35b61011c60048036038101906101179190610877565b6103c4565b60405161012b93929190610a1f565b60405180910390f35b61014e60048036038101906101499190610b92565b610476565b005b6101586105c6565b6040516101659190610bea565b60405180910390f35b6101766105ec565b604051610184929190610c05565b60405180910390f35b610195610741565b6040516101a2919061094a565b60405180910390f35b6101b3610754565b005b600360149054906101000a900460ff16610204576040517f08c379a00000000000000000000000000000000000000000000000000000000081526004016101fb90610c81565b60405180910390fd5b600160003373ffffffffffffffffffffffffffffffffffffffff1673ffffffffffffffffffffffffffffffffffffffff16815260200190815260200160002060009054906101000a900460ff1615610291576040517f08c379a000000000000000000000000000000000000000000000000000000000815260040161028890610ced565b60405180910390fd5b60025481106102d5576040517f08c379a00000000000000000000000000000000000000000000000000000000081526004016102cc90610d59565b60405180910390fd5b60008082815260200190815260200160002060020160008154809291906102fb90610da8565b919050555060018060003373ffffffffffffffffffffffffffffffffffffffff1673ffffffffffffffffffffffffffffffffffffffff16815260200190815260200160002060006101000a81548160ff021916908315150217905550803373ffffffffffffffffffffffffffffffffffffffff167fa36cc2bebb74db33e9f88110a07ef56e1b31b24b4c4f51b54b1664266e29f45b60405160405180910390a350565b60016020528060005260406000206000915054906101000a900460ff1681565b60025481565b60006020528060005260406000206000915090508060000154908060010180546103ed90610e1f565b80601f016020809104026020016040519081016040528092919081815260200182805461041990610e1f565b80156104665780601f1061043b57610100808354040283529160200191610466565b820191906000526020600020905b81548152906001019060200180831161044957829003601f168201915b5050505050908060020154905083565b600360009054906101000a900473ffffffffffffffffffffffffffffffffffffffff1673ffffffffffffffffffffffffffffffffffffffff163373ffffffffffffffffffffffffffffffffffffffff1614610506576040517f08c379a00000000000000000000000000000000000000000000000000000000081526004016104fd90610e9c565b60405180910390fd5b60405180606001604052806002548152602001828152602001600081525060008060025481526020019081526020016000206000820151816000015560208201518160010190816105579190611068565b50604082015181600201559050506002600081548092919061057890610da8565b9190505550600160025461058c919061113a565b7fe83b2a43e7e82d975c8a0a6d2f045153c869e111136a34d1889ab7b598e396a3826040516105bb919061116e565b60405180910390a250565b600360009054906101000a900473ffffffffffffffffffffffffffffffffffffffff1681565b60606000600360149054906101000a900460ff1615610640576040517f08c379a0000000000000000000000000000000000000000000000000000000008152600401610637906111dc565b60405180910390fd5b6000606060005b60025481101561073457826000808381526020019081526020016000206002015411156107275760008082815260200190815260200160002060020154925060008082815260200190815260200160002060010180546106a690610e1f565b80601f01602080910402602001604051908101604052809291908181526020018280546106d290610e1f565b801561071f5780601f106106f45761010080835404028352916020019161071f565b820191906000526020600020905b81548152906001019060200180831161070257829003601f168201915b505050505091505b8080600101915050610647565b5080829350935050509091565b600360149054906101000a900460ff1681565b600360009054906101000a900473ffffffffffffffffffffffffffffffffffffffff1673ffffffffffffffffffffffffffffffffffffffff163373ffffffffffffffffffffffffffffffffffffffff16146107e4576040517f08c379a00000000000000000000000000000000000000000000000000000000081526004016107db90610e9c565b60405180910390fd5b6000600360146101000a81548160ff0219169083151502179055507f7a19ed057db79e3c2fa0b97a54b43bef4fce74b31bb6c01af514b9a18a7f70ab60405160405180910390a1565b6000604051905090565b600080fd5b600080fd5b6000819050919050565b61085481610841565b811461085f57600080fd5b50565b6000813590506108718161084b565b92915050565b60006020828403121561088d5761088c610837565b5b600061089b84828501610862565b91505092915050565b600073ffffffffffffffffffffffffffffffffffffffff82169050919050565b60006108cf826108a4565b9050919050565b6108df816108c4565b81146108ea57600080fd5b50565b6000813590506108fc816108d6565b92915050565b60006020828403121561091857610917610837565b5b6000610926848285016108ed565b91505092915050565b60008115159050919050565b6109448161092f565b82525050565b600060208201905061095f600083018461093b565b92915050565b61096e81610841565b82525050565b60006020820190506109896000830184610965565b92915050565b600081519050919050565b600082825260208201905092915050565b60005b838110156109c95780820151818401526020810190506109ae565b60008484015250505050565b6000601f19601f8301169050919050565b60006109f18261098f565b6109fb818561099a565b9350610a0b8185602086016109ab565b610a14816109d5565b840191505092915050565b6000606082019050610a346000830186610965565b8181036020830152610a4681856109e6565b9050610a556040830184610965565b949350505050565b600080fd5b600080fd5b7f4e487b7100000000000000000000000000000000000000000000000000000000600052604160045260246000fd5b610a9f826109d5565b810181811067ffffffffffffffff82111715610abe57610abd610a67565b5b80604052505050565b6000610ad161082d565b9050610add8282610a96565b919050565b600067ffffffffffffffff821115610afd57610afc610a67565b5b610b06826109d5565b9050602081019050919050565b82818337600083830152505050565b6000610b35610b3084610ae2565b610ac7565b905082815260208101848484011115610b5157610b50610a62565b5b610b5c848285610b13565b509392505050565b600082601f830112610b7957610b78610a5d565b5b8135610b89848260208601610b22565b91505092915050565b600060208284031215610ba857610ba7610837565b5b600082013567ffffffffffffffff811115610bc657610bc561083c565b5b610bd284828501610b64565b91505092915050565b610be4816108c4565b82525050565b6000602082019050610bff6000830184610bdb565b92915050565b60006040820190508181036000830152610c1f81856109e6565b9050610c2e6020830184610965565b9392505050565b7f566f74696e6720697320636c6f73656400000000000000000000000000000000600082015250565b6000610c6b60108361099a565b9150610c7682610c35565b602082019050919050565b60006020820190508181036000830152610c9a81610c5e565b9050919050565b7f596f75206861766520616c726561647920766f74656400000000000000000000600082015250565b6000610cd760168361099a565b9150610ce282610ca1565b602082019050919050565b60006020820190508181036000830152610d0681610cca565b9050919050565b7f496e76616c69642063616e646964617465000000000000000000000000000000600082015250565b6000610d4360118361099a565b9150610d4e82610d0d565b602082019050919050565b60006020820190508181036000830152610d7281610d36565b9050919050565b7f4e487b7100000000000000000000000000000000000000000000000000000000600052601160045260246000fd5b6000610db382610841565b91507fffffffffffffffffffffffffffffffffffffffffffffffffffffffffffffffff8203610de557610de4610d79565b5b600182019050919050565b7f4e487b7100000000000000000000000000000000000000000000000000000000600052602260045260246000fd5b60006002820490506001821680610e3757607f821691505b602082108103610e4a57610e49610df0565b5b50919050565b7f4f6e6c79206f776e65722063616e2063616c6c20746869730000000000000000600082015250565b6000610e8660188361099a565b9150610e9182610e50565b602082019050919050565b60006020820190508181036000830152610eb581610e79565b9050919050565b60008190508160005260206000209050919050565b60006020601f8301049050919050565b600082821b905092915050565b600060088302610f1e7fffffffffffffffffffffffffffffffffffffffffffffffffffffffffffffffff82610ee1565b610f288683610ee1565b95508019841693508086168417925050509392505050565b6000819050919050565b6000610f65610f60610f5b84610841565b610f40565b610841565b9050919050565b6000819050919050565b610f7f83610f4a565b610f93610f8b82610f6c565b848454610eee565b825550505050565b600090565b610fa8610f9b565b610fb3818484610f76565b505050565b5b81811015610fd757610fcc600082610fa0565b600181019050610fb9565b5050565b601f82111561101c57610fed81610ebc565b610ff684610ed1565b81016020851015611005578190505b61101961101185610ed1565b830182610fb8565b50505b505050565b600082821c905092915050565b600061103f60001984600802611021565b1980831691505092915050565b6000611058838361102e565b9150826002028217905092915050565b6110718261098f565b67ffffffffffffffff81111561108a57611089610a67565b5b6110948254610e1f565b61109f828285610fdb565b600060209050601f8311600181146110d257600084156110c0578287015190505b6110ca858261104c565b865550611132565b601f1984166110e086610ebc565b60005b82811015611108578489015182556001820191506020850194506020810190506110e3565b868310156111255784890151611121601f89168261102e565b8355505b6001600288020188555050505b505050505050565b600061114582610841565b915061115083610841565b925082820390508181111561116857611167610d79565b5b92915050565b6000602082019050818103600083015261118881846109e6565b905092915050565b7f566f74696e67206973207374696c6c206f70656e000000000000000000000000600082015250565b60006111c660148361099a565b91506111d182611190565b602082019050919050565b600060208201905081810360008301526111f5816111b9565b905091905056fea2646970667358221220c2ca7f4d5ed02f2fb60fe50589f76635e58c1dff26d1a3db1d722b4fa53fde6a64736f6c63430008180033",
  "linkReferences": {},
  "deployedLinkReferences": {}
}